:100000000C94DE000C9406010C9406010C9406017D
:100010000C9406010C9406010C9406010C94060144
:100020000C9406010C9406010C9406010C94060134
:100030000C9406010C9406010C9406010C94060124
:100040000C9405040C9406010C94D3030C94AD039A
:100050000C9406010C9406010C9406010C94060104
:100060000C9406010C9406010000000024002700F7
:100070002A0000000008000201000003040700003D
:100080000000000000000000000000000000000070
:10009000000000000000000000000000000001015E
:1000A000010101010101010101010202020202023A
:1000B0000202030303030303040404040505050506
:1000C00005060606060707070808080909090A0AB7
:1000D0000A0B0B0B0C0C0D0D0D0E0E0F0F1010114B
:1000E00011121213131414151516161718181919BE
:1000F0001A1B1B1C1D1D1E1F1F202122222324250D
:1001000026262728292A2A2B2C2D2E2F3031323330
:100110003435363738393A3B3C3D3E3F4041424426
:1001200045464748494B4C4D4E50515254555658F0
:10013000595A5C5D5E606163646667696A6C6D6F85
:100140007072737577787A7C7D7F818284868889E6
:100150008B8D8F91929496989A9C9EA0A2A4A6A80B
:10016000AAACAEB0B2B4B6B8BABCBFC1C3C5C7CAF8
:10017000CCCED1D3D5D7DADCDFE1E3E6E8EBEDF0A6
:10018000F2F5F7FAFCFF010204081020408001029A
:1001900004081020010204081020000000002500BF
:1001A00028002B00040404040404040402020202D4
:1001B00002020303030303034F04990711241FBE24
:1001C000CFEFD8E0DEBFCDBF11E0A0E0B1E0E6E8C0
:1001D000F2E102C005900D92AA32B107D9F721E0F1
:1001E000AAE2B1E001C01D92A03FB207E1F710E022
:1001F000CDEDD0E004C02197FE010E940408CC3D63
:10020000D107C9F70E94F8040C9436090C94000039
:1002100080E480937C0080917A00806480937A00EF
:1002200080917A0086FDFCCF8091780090917900D2
:100230000895AF92BF92CF92DF92EF92FF920F9309
:100240001F93CF93DF936C017B018B01040F151F6C
:10025000EB015E01AE18BF08C017D10759F06991D4
:10026000D601ED91FC910190F081E02DC601099538
:10027000892B79F7C501DF91CF911F910F91FF90E5
:10028000EF90DF90CF90BF90AF900895FC01538D19
:10029000448D252F30E0842F90E0821B930B541760
:1002A00010F0CF96089501970895FC01918D828DED
:1002B000981761F0A28DAE0FBF2FB11D5D968C9186
:1002C000928D9F5F9F73928F90E008958FEF9FEFC5
:1002D0000895FC01918D828D981731F0828DE80F81
:1002E000F11D858D90E008958FEF9FEF0895FC013B
:1002F000918D228D892F90E0805C9F4F821B910908
:100300008F739927089589E391E00E94770121E096
:10031000892B09F420E0822F089580E090E0892B5A
:1003200029F00E94830181110C9400000895FC01C2
:10033000A48DA80FB92FB11DA35ABF4F2C91848D46
:1003400090E001968F739927848FA689B7892C93A3
:10035000A089B1898C91837080648C93938D848DF6
:10036000981306C00288F389E02D80818F7D8083F9
:100370000895EF92FF920F931F93CF93DF93EC01B9
:1003800081E0888F9B8D8C8D98131AC0E889F9893C
:10039000808185FF15C09FB7F894EE89FF8960833F
:1003A000E889F98980818370806480839FBF81E0C0
:1003B00090E0DF91CF911F910F91FF90EF90089502
:1003C000F62E0B8D10E00F5F1F4F0F731127E02EDD
:1003D0008C8D8E110CC00FB607FCFACFE889F98915
:1003E000808185FFF5CFCE010E949701F1CFEB8D83
:1003F000EC0FFD2FF11DE35AFF4FF0829FB7F894E9
:100400000B8FEA89FB8980818062CFCFCF93DF9306
:10041000EC01888D8823B9F0AA89BB89E889F9891C
:100420008C9185FD03C0808186FD0DC00FB607FC51
:10043000F7CF8C9185FFF2CF808185FFEDCFCE0184
:100440000E949701E9CFDF91CF91089590E0FC01E0
:10045000EE58FF4F2491FC01EA57FE4F3491FC0106
:10046000EC55FE4FE491EE23C9F0222339F02330FE
:1004700001F1A8F4213019F1223029F1F0E0EE0F5A
:10048000FF1FE656FE4FA591B4918FB7F894EC91FB
:10049000611126C030953E233C938FBF08952730CD
:1004A000A9F02830C9F0243049F7809180008F7D71
:1004B00003C0809180008F7780938000DFCF84B568
:1004C0008F7784BDDBCF84B58F7DFBCF8091B0006B
:1004D0008F778093B000D2CF8091B0008F7DF9CF1D
:1004E0003E2BDACFCF93DF9390E0FC01EA57FE4F2B
:1004F00024918C559E4FFC0184918823D1F090E08B
:10050000880F991FFC01E859FF4FA591B491FC0198
:10051000E656FE4FC591D49161110EC09FB7F89475
:100520008C91E22FE0958E238C932881E223E8833F
:100530009FBFDF91CF9108958FB7F894EC91E22B94
:10054000EC938FBFF6CF3FB7F89480912F01909135
:100550003001A0913101B091320126B5A89B05C0B0
:100560002F3F19F00196A11DB11D3FBFBA2FA92F32
:10057000982F8827BC01CD01620F711D811D911D2F
:1005800042E0660F771F881F991F4A95D1F708959B
:10059000CF92DF92EF92FF920F931F93CF93DF934F
:1005A000CDB7DEB729970FB6F894DEBF0FBECDBF2B
:1005B000C090E501D090E601E090E701F090E801FD
:1005C0000E94A3026C157D058E059F0550F40E94C4
:1005D000A3026093E5017093E6018093E701909395
:1005E000E8010E94A3020091E5011091E60120912B
:1005F000E7013091E801601B710B820B930B6C32A9
:10060000714081059105A0F2F8948091DA019091F2
:10061000DB019A838983E091DF01F091E001DF0142
:100620001196808189879091D601E091E901F0913E
:10063000EA018091EB01992309F449C09081982B3C
:1006400098879081809589238F838F818C8388E020
:100650008B8358856F8149853B812C8189819A8163
:10066000508347FD252F3A952083262F39F0441FCC
:1006700000C000006083000000C0F2CF38E04D9160
:1006800060830000019761F7F093EA01E093E901CC
:1006900049873B832C839A83898378940E94A302A1
:1006A0006093E5017093E6018093E7019093E80180
:1006B00029960FB6F894DEBF0FBECDBFDF91CF9164
:1006C0001F910F91FF90EF90DF90CF900895908150
:1006D000982B98879081809589238F838F818E8333
:1006E00088E08D8358856F8149853D812E81898180
:1006F0009A81508347FD252F00C000C0208300C091
:1007000000C000C000C000C060830000262F3A95E2
:1007100041F0441F000000C000C000C000C000C085
:10072000E8CF38E04D9100C0608300C0019709F721
:10073000F093EA01E093E90149873D832E83ABCF33
:10074000FC0101900020E9F73197AF01481B590BDC
:10075000BC0189E391E00C9419011F920F920FB62E
:100760000F9211242F933F934F935F936F937F9337
:100770008F939F93AF93BF93EF93FF9389E391E0A0
:100780000E949701FF91EF91BF91AF919F918F913F
:100790007F916F915F914F913F912F910F900FBE7D
:1007A0000F901F9018951F920F920FB60F92112461
:1007B0002F938F939F93EF93FF93E0914901F091D3
:1007C0004A018081E0914F01F091500182FD1BC0F0
:1007D0009081809152018F5F8F7320915301821716
:1007E00041F0E0915201F0E0E75CFE4F958F80937D
:1007F0005201FF91EF919F918F912F910F900FBE1A
:100800000F901F9018958081F4CF1F920F920FB612
:100810000F9211242F933F938F939F93AF93BF9386
:1008200080912B0190912C01A0912D01B0912E016E
:1008300030912A0123E0230F2D3758F50196A11D91
:10084000B11D20932A0180932B0190932C01A0933A
:100850002D01B0932E0180912F0190913001A09134
:100860003101B09132010196A11DB11D80932F017C
:1008700090933001A0933101B0933201BF91AF91B9
:100880009F918F913F912F910F900FBE0F901F90CE
:10089000189526E8230F0296A11DB11DD2CFCF9344
:1008A000DF9310923C0110923B0188EE93E0A0E0B0
:1008B000B0E080933D0190933E01A0933F01B0933F
:1008C00040018AE091E090933A018093390185ECF0
:1008D00090E0909346018093450184EC90E09093E2
:1008E00048018093470180EC90E090934A01809307
:1008F000490181EC90E090934C0180934B0182EC94
:1009000090E090934E0180934D0186EC90E090939F
:10091000500180934F011092520110925301109296
:100920005401109255011092D7011092DE011092DD
:10093000E5011092E6011092E7011092E80181E0D2
:100940008093E4018093E1011092E20192E09093A0
:10095000E3018093D601C0EBD1E0D093DB01C093DB
:10096000DA0180EB91E00E940A089093E001809305
:10097000DF010097A1F1FC019E011192215030404E
:10098000E1F780E990E09093D9018093D80186E067
:1009900090E09093DD018093DC018091D701882362
:1009A00041F061E086E00E94720260E086E00E9411
:1009B0002602EAEAF1E0E491F0E0EE0FFF1FE656CE
:1009C000FE4F859194919093EA018093E901ECE8C0
:1009D000F1E0E491E093EB01DF91CF910895109263
:1009E000DB011092DA011092D9011092D801CFCF19
:1009F000CF93DF93CDB7DEB7E5970FB6F894DEBFA0
:100A00000FBECDBF789484B5826084BD84B581600B
:100A100084BD85B5826085BD85B5816085BD8091C9
:100A20006E00816080936E00109281008091810041
:100A30008260809381008091810081608093810039
:100A4000809180008160809380008091B1008460FB
:100A50008093B1008091B00081608093B00080915C
:100A60007A00846080937A0080917A00826080931B
:100A70007A0080917A00816080937A0080917A0078
:100A8000806880937A001092C100E0914901F09152
:100A90004A0182E08083E0914501F0914601108295
:100AA000E0914701F09148018FEC80831092510151
:100AB000E0914D01F0914E0186E08083E0914B0181
:100AC000F0914C01808180618083E0914B01F09135
:100AD0004C01808188608083E0914B01F0914C0152
:100AE000808180688083E0914B01F0914C0180818E
:100AF0008F7D808360E08EE00E94720261E084E07E
:100B00000E94720261E083E00E94720261E085E06F
:100B10000E94720261E083E00E94260260E083E0AE
:100B20000E94260261E085E00E9426028091DC019D
:100B30009091DD0197FD08C061E00E94720260E0C3
:100B40008091DC010E94260281E08093D701809190
:100B5000DF019091E001892B11F00E94C8029E01F3
:100B60002A5D3F4F3FA32EA361E084E00E9426024E
:100B700060E084E00E94260283E590E00197F1F7AF
:100B80000E94080108E710E08837910554F00E94A0
:100B900008010FEF13E0811594401CF40E94080136
:100BA0008C0188E191E00E94A0036801110FEE081A
:100BB000FF08F7FE60C06DE289E391E00E94B90191
:100BC00022273327A9012C193D094E095F0919A2D3
:100BD0008E010F5D1F4FCA01B9012AE030E040E0ED
:100BE00050E00E94D307605DD8016E938D012115FE
:100BF00031054105510579F70115110519F0C801B5
:100C00000E94A0038BE891E00197F1F74091DA018F
:100C10005091DB0170E060E08091DF019091E00194
:100C20000E942F09A701960128573109410951094E
:100C3000A0E9B0E00E94C80728EA32E040E050E0B6
:100C40000E94A90769010091370110913801C9017B
:100C5000801B910B8A35910564F480913501909148
:100C6000360187399105FCF0019690933601809307
:100C7000350186011CC0A701960119A28E010F5DE6
:100C80001F4FCA01B9012AE030E040E050E00E9465
:100C9000D307605DF80162938F012115310541058D
:100CA000510579F7A9CF10923601109235012091A4
:100CB0003301309134013BA72AA7809135019091EF
:100CC0003601873991050CF00FC14091DA0150913E
:100CD000DB0170E060E08091DF019091E0010E9413
:100CE0002F09812C912C5401712C612C60167106F6
:100CF0000CF0FAC08091D8019091D90199A788A7EA
:100D00009C0150E040E0C501B4010E94A907AAA5DA
:100D1000BBA52A0F3B1FAAEFB5E00E94F507DC0137
:100D2000CB019058AF4FBF4FCD01BB2797FDB0957A
:100D3000AB2F8E3FE1E09E0708F095C0482F8F3F14
:100D4000910508F4AEC0FEEFF81B8F2F60E04FEF67
:100D50008CA71DA6ECA5FDA5CF01B0E0A0E0DC01AD
:100D6000992788276EA71FA62EA53FA51901512CEC
:100D7000412C822B9329A429B52948AB19AAE8A9AB
:100D8000F9A9AF0170E060E0762F652F542F44275A
:100D9000842B952BA62BB72B8AA39BA3ACA3BDA317
:100DA000DE019296ED91F0E0EA57FF4F2491CD01DC
:100DB0000197FC0120832EA13FA12A173B0791F741
:100DC00088A599A56816790608F046C04AA15BA1D6
:100DD0006CA17DA1CB01AA27BB278AAB9BABACAB97
:100DE000BDABAAA9252E362E472E5524B22D48A7D5
:100DF000E091DE01EE2361F08E9F90011124A32F7C
:100E0000E29D10011124B32DE49FC001112498A785
:100E1000F091E4012091DF013091E0018091E10146
:100E2000F81345C0C301880F991F860D971D280F21
:100E3000391FE091E101E20FF32FF11DA083E09152
:100E4000E201E20FF32FF11DB0838091E301280F3F
:100E5000311DE8A5D901EC93FFEF6F1A7F0A2FEF40
:100E6000A21AB20A43CF8C3F43E0940760F462E0D9
:100E7000680F4FEF8D3FE2E09E0718F04CEF481BE4
:100E80006FEF80E065CF8A3FF5E09F0769F06AEF7A
:100E9000681B8B3F44E0940740F48C5F6FEF40E0A9
:100EA00057CF60E08FEF54CF60E040E0FBCFC3014D
:100EB000880F991F880F991F280F391F472F552713
:100EC00066277727EE2351F08E2F90E0849F200134
:100ED000859F500C949F500C1124452DC9018F0FF4
:100EE000911DFC014083A5CF8091DF019091E0012D
:100EF000892B11F00E94C8028AA59BA588529D4F9C
:100F0000909334018093330186E291E00E94A00324
:100F1000D0923801C092370180E090E0892B09F42B
:100F200023CE0E948301882309F41ECE0E94000074
:100F30001BCE8091DF019091E0010E94A608809174
:100F4000DC019091DD0197FD03C060E00C9472021A
:100F50000895052E97FB1EF400940E94C00757FDCC
:100F600007D00E94D30707FC03D04EF40C94C007AF
:100F700050954095309521953F4F4F4F5F4F0895C5
:100F800090958095709561957F4F8F4F9F4F0895F5
:100F90000E94F507A59F900DB49F900DA49F800D12
:100FA000911D11240895A1E21A2EAA1BBB1BFD015D
:100FB0000DC0AA1FBB1FEE1FFF1FA217B307E40738
:100FC000F50720F0A21BB30BE40BF50B661F771F90
:100FD000881F991F1A9469F7609570958095909570
:100FE0009B01AC01BD01CF010895A29FB001B39F49
:100FF000C001A39F700D811D1124911DB29F700D22
:10100000811D1124911D0895EE0FFF1F0590F4918D
:10101000E02D09940F931F93CF93DF9382309105B6
:1010200010F482E090E0E091EE01F091EF0130E009
:1010300020E0B0E0A0E0309799F42115310509F4E3
:101040004AC0281B390B24303105D8F58A819B8191
:101050006115710589F1FB0193838283FE0111C043
:10106000408151810281138148175907E0F04817E8
:10107000590799F4109761F012960C9312971396F2
:101080001C933296CF01DF91CF911F910F9108955C
:101090000093EE011093EF01F4CF2115310551F0CB
:1010A0004217530738F0A901DB019A01BD01DF01A6
:1010B000F801C1CFEF01F9CF9093EF018093EE01DA
:1010C000CDCFFE01E20FF31F81939193225031099E
:1010D00039832883D7CF2091EC013091ED01232B68
:1010E00041F420910201309103013093ED012093EE
:1010F000EC0120910001309101012115310541F4ED
:101100002DB73EB74091040150910501241B350BCA
:10111000E091EC01F091ED01E217F307A0F42E1B32
:101120003F0B2817390778F0AC014E5F5F4F24174B
:10113000350748F04E0F5F1F5093ED014093EC01CF
:10114000819391939FCFF0E0E0E09CCFCF93DF932A
:101150000097E9F0FC01329713821282A091EE0110
:10116000B091EF01ED0130E020E01097A1F4208173
:101170003181820F931F2091EC013091ED012817EE
:10118000390709F061C0F093ED01E093EC01DF91C4
:10119000CF910895EA01CE17DF07E8F54A815B8118
:1011A0009E0141155105B1F7E901FB83EA8349919D
:1011B0005991C40FD51FEC17FD0761F4808191810F
:1011C0000296840F951FE901998388838281938118
:1011D0009B838A83F0E0E0E012968D919C911397B7
:1011E0000097B9F52D913C911197CD010296820F90
:1011F000931F2091EC013091ED012817390739F642
:10120000309751F51092EF011092EE01B093ED017D
:10121000A093EC01BCCFD383C28340815181840F62
:10122000951FC817D90761F44E5F5F4F8881998178
:10123000480F591F518340838A819B819383828306
:101240002115310509F0B0CFF093EF01E093EE01E5
:101250009ECFFD01DC01C0CF13821282D7CFDC010B
:1012600001C06D9341505040E0F7089510E0CDED7E
:10127000D0E004C0FE010E9404082196CE3DD107B3
:06128000C9F7F894FFCF4E
:101286000000F001800000000000B90119014601CC
:10129600060277015501690141757820566F6C7415
:0A12A6006167653A20000D0A0000A0
:00000001FF
